{
  "contractName": "RarityCaller",
  "abi": [
    {
      "inputs": [
        {
          "internalType": "uint256[]",
          "name": "_summoners",
          "type": "uint256[]"
        }
      ],
      "name": "adventure",
      "outputs": [],
      "stateMutability": "nonpayable",
      "type": "function"
    },
    {
      "inputs": [
        {
          "internalType": "uint256[]",
          "name": "_summoners",
          "type": "uint256[]"
        }
      ],
      "name": "level_up",
      "outputs": [],
      "stateMutability": "nonpayable",
      "type": "function"
    },
    {
      "inputs": [
        {
          "internalType": "uint256[]",
          "name": "_summoners",
          "type": "uint256[]"
        }
      ],
      "name": "dungeon",
      "outputs": [],
      "stateMutability": "nonpayable",
      "type": "function"
    },
    {
      "inputs": [
        {
          "internalType": "uint256[]",
          "name": "_summoners",
          "type": "uint256[]"
        }
      ],
      "name": "claim_gold",
      "outputs": [],
      "stateMutability": "nonpayable",
      "type": "function"
    },
    {
      "inputs": [
        {
          "internalType": "uint256[]",
          "name": "_summoners",
          "type": "uint256[]"
        }
      ],
      "name": "is_approved",
      "outputs": [
        {
          "internalType": "bool[]",
          "name": "_is_approved",
          "type": "bool[]"
        }
      ],
      "stateMutability": "view",
      "type": "function",
      "constant": true
    },
    {
      "inputs": [
        {
          "internalType": "uint256[]",
          "name": "_summoners",
          "type": "uint256[]"
        }
      ],
      "name": "approve_all",
      "outputs": [],
      "stateMutability": "nonpayable",
      "type": "function"
    }
  ],
  "bytecode": "0x608060405234801561001057600080fd5b50610a07806100206000396000f3fe608060405234801561001057600080fd5b50600436106100625760003560e01c806313217f0e1461006757806333dc76f9146100835780633a0916501461009f5780638465d03f146100bb578063b9aac9e2146100d7578063e708c494146100f3575b600080fd5b610081600480360381019061007c91906106f4565b610123565b005b61009d600480360381019061009891906106f4565b6101e1565b005b6100b960048036038101906100b491906106f4565b6102a1565b005b6100d560048036038101906100d091906106f4565b61035f565b005b6100f160048036038101906100ec91906106f4565b61041d565b005b61010d600480360381019061010891906106f4565b6104db565b60405161011a919061080d565b60405180910390f35b60005b828290508110156101dc5773ce761d788df608bd21bdd59d6f4b54b2e27f25bb73ffffffffffffffffffffffffffffffffffffffff16639024944884848481811061017457610173610943565b5b905060200201356040518263ffffffff1660e01b8152600401610197919061082f565b600060405180830381600087803b1580156101b157600080fd5b505af11580156101c5573d6000803e3d6000fd5b5050505080806101d4906108cb565b915050610126565b505050565b60005b8282905081101561029c5773ce761d788df608bd21bdd59d6f4b54b2e27f25bb73ffffffffffffffffffffffffffffffffffffffff1663095ea7b33085858581811061023357610232610943565b5b905060200201356040518363ffffffff1660e01b81526004016102579291906107e4565b600060405180830381600087803b15801561027157600080fd5b505af1158015610285573d6000803e3d6000fd5b505050508080610294906108cb565b9150506101e4565b505050565b60005b8282905081101561035a5773ce761d788df608bd21bdd59d6f4b54b2e27f25bb73ffffffffffffffffffffffffffffffffffffffff1663b00b52f18484848181106102f2576102f1610943565b5b905060200201356040518263ffffffff1660e01b8152600401610315919061082f565b600060405180830381600087803b15801561032f57600080fd5b505af1158015610343573d6000803e3d6000fd5b505050508080610352906108cb565b9150506102a4565b505050565b60005b8282905081101561041857732a0f1cb17680161cf255348ddfdee94ea8ca196a73ffffffffffffffffffffffffffffffffffffffff1663b00b52f18484848181106103b0576103af610943565b5b905060200201356040518263ffffffff1660e01b81526004016103d3919061082f565b600060405180830381600087803b1580156103ed57600080fd5b505af1158015610401573d6000803e3d6000fd5b505050508080610410906108cb565b915050610362565b505050565b60005b828290508110156104d657732069b76afe6b734fb65d1d099e7ec64ee9cc76b273ffffffffffffffffffffffffffffffffffffffff1663379607f584848481811061046e5761046d610943565b5b905060200201356040518263ffffffff1660e01b8152600401610491919061082f565b600060405180830381600087803b1580156104ab57600080fd5b505af11580156104bf573d6000803e3d6000fd5b5050505080806104ce906108cb565b915050610420565b505050565b60608282905067ffffffffffffffff8111156104fa576104f9610972565b5b6040519080825280602002602001820160405280156105285781602001602082028036833780820191505090505b50905060005b83839050811015610655573073ffffffffffffffffffffffffffffffffffffffff1673ce761d788df608bd21bdd59d6f4b54b2e27f25bb73ffffffffffffffffffffffffffffffffffffffff1663081812fc86868581811061059357610592610943565b5b905060200201356040518263ffffffff1660e01b81526004016105b6919061082f565b60206040518083038186803b1580156105ce57600080fd5b505afa1580156105e2573d6000803e3d6000fd5b505050506040513d601f19601f8201168201806040525081019061060691906106c7565b73ffffffffffffffffffffffffffffffffffffffff16148282815181106106305761062f610943565b5b602002602001019015159081151581525050808061064d906108cb565b91505061052e565b5092915050565b60008151905061066b816109ba565b92915050565b60008083601f840112610687576106866109a6565b5b8235905067ffffffffffffffff8111156106a4576106a36109a1565b5b6020830191508360208202830111156106c0576106bf6109ab565b5b9250929050565b6000602082840312156106dd576106dc6109b5565b5b60006106eb8482850161065c565b91505092915050565b6000806020838503121561070b5761070a6109b5565b5b600083013567ffffffffffffffff811115610729576107286109b0565b5b61073585828601610671565b92509250509250929050565b600061074d83836107c6565b60208301905092915050565b61076281610883565b82525050565b60006107738261085a565b61077d8185610872565b93506107888361084a565b8060005b838110156107b95781516107a08882610741565b97506107ab83610865565b92505060018101905061078c565b5085935050505092915050565b6107cf81610895565b82525050565b6107de816108c1565b82525050565b60006040820190506107f96000830185610759565b61080660208301846107d5565b9392505050565b600060208201905081810360008301526108278184610768565b905092915050565b600060208201905061084460008301846107d5565b92915050565b6000819050602082019050919050565b600081519050919050565b6000602082019050919050565b600082825260208201905092915050565b600061088e826108a1565b9050919050565b60008115159050919050565b600073ffffffffffffffffffffffffffffffffffffffff82169050919050565b6000819050919050565b60006108d6826108c1565b91507fffffffffffffffffffffffffffffffffffffffffffffffffffffffffffffffff82141561090957610908610914565b5b600182019050919050565b7f4e487b7100000000000000000000000000000000000000000000000000000000600052601160045260246000fd5b7f4e487b7100000000000000000000000000000000000000000000000000000000600052603260045260246000fd5b7f4e487b7100000000000000000000000000000000000000000000000000000000600052604160045260246000fd5b600080fd5b600080fd5b600080fd5b600080fd5b600080fd5b6109c381610883565b81146109ce57600080fd5b5056fea264697066735822122033ab95d2aae8f163b5d16df183b4728af85884bddeb9b0aa1c9ff0d8d079c2cd64736f6c63430008070033",
  "immutableReferences": {},
  "source": "// SPDX-License-Identifier: MIT\npragma solidity ^0.8.7; // Rarity.sol\n\ninterface rarity {\n  function level_up(uint) external;\n  function approve(address, uint256) external;\n  function adventure(uint) external;\n  function getApproved(uint256) external view returns (address);\n}\n\ninterface rarity_crafting_materials_i {\n  function adventure(uint) external;\n}\n\ninterface rarity_gold {\n  function claim(uint) external;\n}\n\ncontract RarityCaller {\n\n  rarity constant _rm = rarity(0xce761D788DF608BD21bdd59d6f4B54b2e27F25Bb);\n  rarity_gold constant _gold = rarity_gold(0x2069B76Afe6b734Fb65D1d099E7ec64ee9CC76B2);\n  rarity_crafting_materials_i constant _craft_i = rarity_crafting_materials_i(0x2A0F1cB17680161cF255348dDFDeE94ea8Ca196A);\n\n  function adventure(uint256[] calldata _summoners) external {\n    for (uint i = 0; i < _summoners.length; i++) {\n      _rm.adventure(_summoners[i]);\n    }\n  }\n\n  function level_up(uint256[] calldata _summoners) external {\n    for (uint i = 0; i < _summoners.length; i++) {\n      _rm.level_up(_summoners[i]);\n    }\n  }\n\n  function dungeon(uint256[] calldata _summoners) external {\n    for (uint i = 0; i < _summoners.length; i++) {\n      _craft_i.adventure(_summoners[i]);\n    }\n  }\n\n  function claim_gold(uint256[] calldata _summoners) external {\n    for (uint i = 0; i < _summoners.length; i++) {\n      _gold.claim(_summoners[i]);\n    }\n  }\n\n  function is_approved(uint256[] calldata _summoners) external view returns (bool[] memory _is_approved) {\n    _is_approved = new bool[](_summoners.length);\n    for (uint i = 0; i < _summoners.length; i++) {\n      _is_approved[i] = _rm.getApproved(_summoners[i]) == address(this);\n    }\n  }\n\n  function approve_all(uint256[] calldata _summoners) external {\n    for (uint i = 0; i < _summoners.length; i++) {\n      _rm.approve(address(this), _summoners[i]);\n    }\n  }\n}\n",
  "sourcePath": "/Users/15ho/workspace/15ho/rarity-caller/contracts/RarityCaller.sol",
  "compiler": {
    "name": "solc",
    "version": "0.8.7+commit.e28d00a7.Emscripten.clang"
  },
  "schemaVersion": "3.4.3",
  "updatedAt": "2021-10-29T09:48:27.905Z",
  "networkType": "ethereum",
  "devdoc": {
    "kind": "dev",
    "methods": {},
    "version": 1
  },
  "userdoc": {
    "kind": "user",
    "methods": {},
    "version": 1
  }
}